:020000040000FA
:04000000C6EF3FF018
:107F8C000001C9EF3FF0000E016E000E046E000EF2
:107F9C00056E000E066E000E076E000E036E000ED0
:107FAC00026E020E016E01C08AFF000E036E040EFB
:107FBC00026E02C08AFF040E016E01C08AFF000E21
:107FCC008A6E010E036E040E026E02C08AFF03500D
:107FDC008A6E040E046E030E056E020E066E010E02
:107FEC00076E04C08AFF05C08AFF06C08AFF07C05F
:047FFC008AFFFFD722
:020000040020DA
:08000000FFFFFFFFFFFFFFFF00
:020000040030CA
:0E000000FF02191EFF8181FF0FC00FE00F40AD
:00000001FF
