:04000000B5EF3FF029
:107F6A000001D0EF3FF00F0EC16E9268000E936EC3
:107F7A00000E816E1200000E026E180E026401D00D
:107F8A001200000E016E540EE82EFED7012EFCD709
:107F9A0000D0022AF2D7000E0A6E000E036E000EFF
:107FAA00046E000E056E000E066E000E096E000EBF
:107FBA00086E000E096E000E086E000E076EB8EC11
:107FCA003FF0000E936E010E816E020E0A6E0AC019
:107FDA0081FFC0EC3FF0000E096E040E086E08C067
:107FEA0081FFC0EC3FF0050E0101016F01C181FF65
:067FFA00C0EC3FF0FFD7D0
:020000040020DA
:08000000FFFFFFFFFFFFFFFF00
:020000040030CA
:0E000000FF02191EFF8181FF0FC00FE00F40AD
:00000001FF
